:0E17E3001217711217C412001EE4FF02179FA6
:03000B0002111AC5
:10111A00C0E0C0F0C083C082C0D075D000C000C09B
:10112A0001C002C003C004C005C006C007758CF820
:10113A00758ACC051FE51F7002051EB4F40BE51E67
:10114A00B40106751E00751F00AE1EAF1F7C007D20
:10115A0005120E33ED4C7003121472AE1EAF1F7CD3
:10116A00007D32120E33ED4C7034D28BD2AA300786
:10117A0008C20790DFFFE51DF0300322121736057B
:10118A0028E52870020527E536B40208E53815383F
:10119A0070021537E53845377004C2B4C203121617
:1011AA0086D007D006D005D004D003D002D001D013
:0C11BA0000D0D0D082D083D0F0D0E03242
:0300130002159F34
:10159F00C0E0C0F0C083C082C0D075D000C000C012
:1015AF0001C002C003C004C005C006C0071214CAA0
:1015BF00C28BC2AAD007D006D005D004D003D00268
:0F15CF00D001D000D0D0D082D083D0F0D0E03285
:03002B0002170DAC
:09170D00C0E0C0D075D000C00797
:10171600E5BC540724FA600B14700E85BD3C75BCFD
:09172600EE800685BD3975BCEFAB
:07172F00D007D0D0D0E0325A
:03001B0002155E6D
:10155E00C0E0C28E85258D85268B30C108C2C5752B
:10156E0032F4753316B2CD30C50AE5331533700C2F
:10157E00153280080533E53370020532E533653EDA
:10158E007004E532653D6004D28E8002C202D0E066
:01159E00321A
:10002E00BBB60434C404C43C20100FE808082818DA
:10003E00000010080601828C40300C030C1060C0CA
:10004E004000D3AD404244C800FC040282FC0404CC
:10005E0004FE04000040201F20474241407F4042E2
:10006E0044632000CAB94020F80704F4141414FFA6
:10007E00141414F604000000FF00804345291917DC
:10008E00212141C34000D3C30000FE22222222FEC2
:10009E0022222222FF02000080601F020202027F43
:1000AE00020242827F000000CFB500022222322ED1
:1000BE00A2622222910901000000000042221A438E
:1000CE00827E02020A1366000000CDB32030AC63BC
:1000DE003088C8A8998E88A8CC8800002267221282
:1000EE009240300F00003F4040417000D7D40000D6
:1000FE0000F8484C4A49484848FC080000000000F7
:10010E0000FF44444444444444FF00000000BCEC5F
:10011E001010D0FF105020504C434C502060200047
:10012E00040300FF4142425C405F40504E64400079
:10013E00D6D000F80808080808FF0808080808FCC8
:10014E00080000030101010101FF0101010101038A
:10015E000000CAA10080C0C0800080C0C0800080A6
:10016E00C0C0800000010303010001030301000170
:10017E0003030100A1A10000000000000000000028
:10018E000000000000000000000000000000000061
:10019E000000000000000000000000000000000051
:1001AE00000000000000000038FCFC3800000000D9
:1001BE00000D0D000000000E1E00001E0E000000BF
:1001CE0000000000000020F8F820F8F82000020FD0
:1001DE000F020F0F0200387C444747CC98000306ED
:1001EE00041C1C07030030300080C06030000C0679
:1001FE000301000C0C0080D87CE4BCD84000070F33
:10020E000808070F080000101E0E00000000000076
:10021E000000000000000000F0F80C0400000000D8
:10022E0003070C0800000000040CF8F000000000AA
:10023E00080C0703000080A0E0C0C0E0A080000210
:10024E00030101030200008080E0E08080000000D6
:10025E00000303000000000000000000000000008A
:10026E00101E0E00000080808080808080000000C4
:10027E000000000000000000000000000000000070
:10028E00000C0C00000000000080C06030000C0666
:10029E00030100000000F8FC04C424FCF800070F62
:1002AE000908080F0700001018FCFC0000000008E9
:1002BE00080F0F080800080C84C4643C18000E0FC9
:1002CE000908080C0C00080C444444FCB800040C4B
:1002DE000808080F0700C0E0B098FCFC8000000082
:1002EE0000080F0F08007C7C4444C4C48400040C36
:1002FE000808080F0700F0F84C4444C08000070FB0
:10030E000808080F07000C0C0484C47C3C00000095
:10031E000F0F00000000B8FC444444FCB800070F67
:10032E000808080F0700387C444444FCF800000815
:10033E0008080C0703000000003030000000000029
:10034E000006060000000000003030000000000033
:10035E00080E060000000080C06030180800000083
:10036E000103060C0800404040404040400002029D
:10037E000202020202000008183060C0800000086D
:10038E000C0603010000181C04C4E43C1800000015
:10039E00000D0D000000F0F808C8C8F8F000070FB7
:1003AE00080B0B0B0100E0F0988C98F0E0000F0F9B
:1003BE000000000F0F0004FCFC4444FCB800080FC2
:1003CE000F08080F0700F0F80C04040C18000307C0
:1003DE000C08080C060004FCFC040CF8F000080FD6
:1003EE000F080C07030004FCFC44E40C1C00080F6F
:1003FE000F08080C0E0004FCFC44E40C1C00080F53
:10040E000F0800000000F0F80C84848C980003079D
:10041E000C0808070F00FCFC404040FCFC000F0FCE
:10042E000000000F0F00000004FCFC0400000000A0
:10043E00080F0F08000000000004FCFC0400070F6A
:10044E0008080F07000004FCFCC0F03C0C00080F6D
:10045E000F00010F0E0004FCFC0400000000080F4A
:10046E000F08080C0E00FCFC387038FCFC000F0F57
:10047E000000000F0F00FCFC3870E0FCFC000F0FBA
:10048E000000000F0F00F0F80C040CF8F00003074A
:10049E000C080C07030004FCFC44447C3800080FD5
:1004AE000F0800000000F8FC040404FCF800070F1D
:1004BE00080E3C3F270004FCFC44C4FC3800080F27
:1004CE000F00000F0F00183C6444C49C1800060E69
:1004DE000808080F0700001C0CFCFC0C1C00000098
:1004EE00080F0F080000FCFC000000FCFC00070FCA
:1004FE000808080F0700FCFC000000FCFC000103CC
:10050E00060C06030100FCFC008000FCFC00030F3F
:10051E000E030E0F03000C3CF0C0F03C0C000C0F51
:10052E000300030F0C00003C7CC0C07C3C000000AC
:10053E00080F0F0800001C0C84C4643C1C000E0F36
:10054E000908080C0E000000FCFC0404000000006A
:10055E000F0F080800003870E0C080000000000097
:10056E00000103070E0000000404FCFC0000000064
:10057E0008080F0F0000080C0603060C0800000008
:10058E00000000000000000000000000000020201D
:10059E00202020202020000003070400000000007F
:1005AE0000000000000000A0A0A0E0C00000070FA7
:1005BE000808070F080004FCFC2060C08000080F2C
:1005CE000708080F0700C0E0202020604000070F3A
:1005DE000808080C040080C06024FCFC0000070F13
:1005EE000808070F0800C0E0A0A0A0E0C000070F99
:1005FE000808080C040040F8FC440C180000080F12
:10060E000F0800000000C0E02020C0E02000276F8F
:10061E0048487F3F000004FCFC4020E0C000080F6B
:10062E000F00000F0F00000020ECEC000000000097
:10063E00080F0F0800000000000020ECEC00003056
:10064E007040407F3F0004FCFC80C0602000080F1B
:10065E000F01030E0C00000004FCFC000000000063
:10066E00080F0F080000E0E060C060E0C0000F0F50
:10067E00000F000F0F0020E0C02020E0C000000F90
:10068E000F00000F0F00C0E0202020E0C000070F79
:10069E000808080F070020E0C02020E0C000407FBF
:1006AE007F48080F0700C0E02020C0E02000070FA1
:1006BE0008487F7F400020E0C0602060C000080F27
:1006CE000F080000000040E0A02020604000040C55
:1006DE0009090B0E04002020F8FC20200000000069
:1006EE00070F080C0400E0E00000E0E00000070F38
:1006FE000808070F080000E0E00000E0E00000033B
:10070E00070C0C070300E0E0000000E0E000070F1C
:10071E000C070C0F07002060C080C0602000080C82
:10072E000703070C0800E0E0000000E0E000474F80
:10073E004848683F1F00606020A0E06020000C0E5B
:10074E000B09080C0C00004040F8BC04040000002B
:10075E0000070F080800000000BCBC0000000000ED
:10076E00000F0F000000000404BCF8404000000819
:10077E00080F07000000080C040C080C0400000011
:10078E0000000000000080C0603060C080000707DD
:10079E00040404070700C0F9A4B0999282F880906F
:0A07AE00FFFEFDFBF7EFDFBF7FFF4A
:1007B800082A01020304050600000234FFFF023A7A
:1007C800FFFF0123FF64000000000000000000009C
:1007D8000000000000000000000000000000000011
:1007E8000000000000000000000000000000000001
:1007F80000000000000000000000000000000000F1
:1008080000000000000000000000000000000000E0
:0D0BC800000000000000000000C101C1801D
:10175600EF1FAA0670011E4A60107C017D2CED1D4C
:0A176600AA0470011C4A60E880F438
:011770002256
:0417D4007F017E0013
:0B17D800EF1FAC0670011E4C70F622E3
:10177100D2ABD2A9D2AF758911758CF8758ACCD24A
:081781008AD2B9D2BBD28C223E
:1016860090FEFF74FFF0E5225407FF7480A8070858
:101696008002C313D8FCF490FDFFF0AF220522EFC1
:0E16A6005407242AF8E69007A49390FEFFF064
:0116B4002213
:1014720090EFFF749AF090EBFF74F0F0E0FD90EFC4
:10148200FF7493F090EBFF740FF0E04205ED6523DB
:101492006014E523FEEDFBEB8E34F5358E3AF53B19
:1014A200F523E4F524220524E524C394644018E5D9
:1014B2002475F01984E5F0700EE524B4FA0375245E
:0714C20064853A34853B35D7
:0114C9002200
:1015DE00D20675F080EDA42400F582E5F03400F516
:0E15EE0083E5822BF582E43583F583E0F56E0C
:1015FC00C2A9A20692B31217D4856E801217D4D248
:0C160C00B21217D4C2B21217D4D2A92215
:1016E300E4FEE4FD75F080EEA42400F582E5F03419
:1016F30000F583E5822DF582E43583F583EFF00D64
:09170300BD80E10EBE08DBD2013D
:01170C0022BA
:1014CA0030014CC201E4FDD2A0C2A1C206ED24B88B
:1014DA00F56E1215FCC206756E401215FCE4FB127D
:1014EA0015DE0BBB40F9C2A0D2A1C206ED24B8F5A5
:1014FA006E1215FCC206756E401215FC7B40121561
:0F150A00DE0BBB80F90DED640870BCC2A1C2A05E
:0115190022AF
:10179F001216E3C206756E3F1215FCC206756EC0B7
:0317AF000215FC24
:0A0BD6008E178F188C198D1A8B1BD7
:100BE000C3E51A94F9E5196480947F5003020DDA85
:100BF000D3E51A943FE519648094804003020DDA2E
:100C0000AE19AF1A7C007D08120E888F1C300803C5
:100C1000631BFFAE19AF1A7C007D08120E88ED4CE5
:100C2000702275F080E51CA42400F582E5F0340004
:100C3000F583E5822518F582E5833517F583E51BF5
:100C4000F0020DD8C3E519648094805043740025E8
:100C500018F58274003517F583E0FFAE1AEE24080C
:100C6000FB74FFA803088002C333D8FC5FF0740054
:100C70002518F58274003517F583E0FFEEF404FEC5
:100C8000E51BA806088002C313D8FC4FF0020DD85C
:100C9000D3E51A9438E51964809480404474802523
:100CA00018F58274033517F583E0FFAE1AC374405C
:100CB0009EFB74FFA803088002C313D8FC5FF07486
:100CC000802518F58274033517F583E0FFEE24C8FC
:100CD000FEE51BA806088002C333D8FC4FF0020DC6
:100CE000D8ED4C7003020DD875F080E51CA42400EB
:100CF000F582E5F03400F583E5822518F582E58379
:100D00003517F583C083C082E0FBAE19AF1A7C00B3
:100D10007D08120E88AF05C374089FFE74FFA806F5
:100D2000088002C313D8FC5BD082D083F075F080BA
:100D3000E51CA42400F582E5F03400F583E5822566
:100D400018F582E5833517F583C083C082E0FEE5A0
:100D50001BA807088002C333D8FC4ED082D083F092
:100D600075F080E51CA42480F582E5F03400F5835D
:100D7000E5822518F582E5833517F583C083C082A7
:100D8000E0FBAE19AF1A7C007D08120E88AF057427
:100D9000FFA807088002C333D8FC5BD082D083F061
:100DA00075F080E51CA42480F582E5F03400F5831D
:100DB000E5822518F582E5833517F583C083C08267
:100DC000E0FEC374089FFFE51BA807088002C31359
:0A0DD000D8FC4ED082D083F0D2018F
:010DDA0022F6
:0A105B008E088F098C0A8D0B8B0C98
:10106500E510450F450E7003021119E50D13131315
:10107500541FFF7E00E50D54077C0060047D018050
:10108500027D00ED2FF516EC3EF515E4F511F51290
:10109500C3E5129516E5156480F8E511648098504E
:1010A50073E4F513F514AF0C7E00C3E5149F74804B
:1010B500F86513985053AC11AD12120E21E5142F9B
:1010C500FFE5133EAB0EAA0FA9108F82F583120D13
:1010D500F4FBE5092514FFE5083513FEC006C00736
:1010E500E512AE117803C333CE33CED8F9250BFD07
:1010F500E50A3EFCA2099208D007D006120BD605D8
:1011050014E51470A10513809D0512E51270810583
:04111500110210951E
:0111190022B3
:0612F7008B648A65896624
:1012FD00E4F567AB64AA65A966120DDBFF75F022F4
:10130D00E567A4242EF582E5F03400F583E4936FB0
:10131D00702D900001120DF4FF75F022E567A424E5
:10132D002FF582E5F03400F583E493B50711E567F9
:10133D0075F022A42430F9740035F0FA7BFF2205F4
:0C134D0067E567B40BAD7B007A00790007
:011359002271
:0A135A008E3F8F408C418D428B4383
:10136400E4F548AB45AA46A94775F002E548A4F55B
:101374008285F083120DF4603BE5438548F0A42593
:1013840040FDE53F35F0FCE54875F002A429F9EA93
:1013940035F0FA1212F78B0E8A0F891085440DA2CC
:1013A4000A9209AF05AE04AB43AD42AC4112105BE7
:0413B400054880AFB9
:0113B8002212
:0A1417008E498F4A8C4B8D4C8B4D93
:10142100E4F552AB4FAA50A951855282758300123F
:101431000DF4FD603BE54D8552F0A4254AF582E5AA
:101441004935F0F583ED75F010A424A4F974FF3546
:10145100F0750EFFF50F8910854E0DA20B9209AFA5
:1014610082AE83AB4DAD4CAC4B12105B055280B3D9
:011471002258
:080F8C008E5F8F608C618D62A5
:100F9400D3E560947FE55F64809480400302105A37
:100FA400E560943FE55F64809480400302105AC377
:100FB400E55F64809480500302105AE56164809474
:100FC40080500302105AAE61AF627C007D08120E9D
:100FD400888F63300C3D75F080E563A42400F582AE
:100FE400E5F03400F583E5822560F582E583355F1D
:100FF400F583C083C082E0FBAE61AF627C007D08F4
:10100400120E88AF057401A807088002C333D8FC08
:101014004B803C75F080E563A42400F582E5F03450
:1010240000F583E5822560F582E583355FF583C0AD
:1010340083C082E0FBAE61AF627C007D08120E8843
:10104400AF057401A807088002C333D8FCF45BD051
:0610540082D083F0D201FE
:01105A002273
:081618008E538F548A558B5646
:101620008C578D58D3E5589556E5556480F8E557A5
:101630006480985019A20D920CAD58AC57AF54AEBF
:0E16400053120F8C0558E55870DA055780D606
:01164E002279
:08164F008E598F5A8A5B8B5CF7
:101657008C5D8D5ED3E55E955CE55B6480F8E55D4A
:101667006480985019A20E920CAD5AAC59AF5EAE79
:0E1677005D120F8C055EE55E70DA055D80D6B3
:011685002242
:0B001E00759DC0D2ADD2AF75BCEF22C3
:10173600D2B6A2B6920420041230000F0529E5366F
:0F174600B40108E538153870021537A204920077
:011755002271
:1017B2008F36AF057537008F38A20F92B5D2B4D2EB
:0217C200032200
:10178900D202D2C57525FE7526B9E4F53DF53EF5BB
:0617990032F533D28E226E
:1011C6008F6B8D6CAE32AF337C017D13120E33EF15
:1011D600656B7001EE700302126A300202C28ED293
:1011E60002AF6CAB07E4FAF9F87FC87E0CFDFC127F
:1011F600151AC3E49FFFE49EFE74019DFDE49CFC6A
:10120600E4FB7A01F9F812151A8F25AF6CAB07E4E7
:10121600FAF9F87FC87E0CFDFC12151AC3E49FFF8D
:10122600E49EFE74019DFDE49CFCE4FB7A01F9F862
:1012360012151AAF038F26AE32AF337C017D13121F
:101246000E33AC06AD07AF6B7E00C3EF9DEE9C5030
:1012560004D2C58002C2C57C017D13120E218E3DCB
:051266008F3ED28E2234
:1017C400759A1075D6FF75D7E8438E1043AF012282
:0E17F100539AFD8F9BE59A30E1FB539AFD223F
:0616B5008B688A69896A56
:1016BB00E4FEAB68AA69A96A8E82758300120DF4E9
:1016CB006011AF060E8F82758300120DF4FF121797
:0816DB00F180DF7F0A0217F124
:1013B900E4F5D953A2CF43A220F5E9F5F9EF14607A
:1013C9001E1460322402704375DA42E4F5F2ED7FAF
:1013D90000FE7C007D64120E338FEA8FFA802C7533
:1013E900DB42E4F5F3ED7F00FE7C007D64120E33F1
:1013F9008FEB8FFB801575DC42E4F5F4ED7F00FE81
:0E1409007C007D64120E338FEC8FFCD2DE224D
:0300000002126B7E
:0C126B00787FE4F6D8FD75816E0212B2A7
:100DDB00BB010689828A83E0225002E722BBFE0216
:090DEB00E32289828A83E4932249
:100DF400BB010CE58229F582E5833AF583E02250B4
:100E040006E92582F8E622BBFE06E92582F8E222FD
:0D0E1400E58229F582E5833AF583E4932217
:100E2100EF8DF0A4A8F0CF8CF0A428CE8DF0A42EE5
:020E3100FE229F
:100E3300BC000BBE0029EF8DF084FFADF022E4CCA3
:100E4300F875F008EF2FFFEE33FEEC33FCEE9DEC6C
:100E5300984005FCEE9DFE0FD5F0E9E4CEFD22EDB2
:100E6300F8F5F0EE8420D21CFEADF075F008EF2FFC
:100E7300FFED33FD4007985006D5F0F222C398FDED
:050E83000FD5F0EA228A
:100E8800C2D5EC30E709B2D5E4C39DFDE49CFCEE85
:100E980030E715B2D5E4C39FFFE49EFE120E33C3BC
:100EA800E49DFDE49CFC8003120E3330D507C3E4B7
:060EB8009FFFE49EFE22F4
:10151A00C2D5E830E70FB2D5E4C39BFBE49AFAE4FC
:10152A0099F9E498F8EC30E717B2D5121550120E73
:10153A00FAE4C39BFBE49AFAE499F9E498F8800385
:10154A00120EFA30D50DE4C39FFFE49EFEE49DFD22
:04155A00E49CFC22EF
:101277000217E3E493A3F8E493A34003F68001F293
:1012870008DFF48029E493A3F85407240CC8C33378
:10129700C4540F4420C8834004F456800146F6DF47
:1012A700E4800B01020408102040809007B8E47E18
:1012B700019360BCA3FF543F30E509541FFEE4933C
:1012C700A360010ECF54C025E060A840B8E493A303
:1012D700FAE493A3F8E493A3C8C582C8CAC583CA2E
:1012E700F0A3C8C582C8CAC583CADFE9DEE780BEE6
:010BD500001F
:100EBE0075F008758200EF2FFFEE33FECD33CDCCEB
:100ECE0033CCC58233C5829BED9AEC99E58298406E
:100EDE000CF582EE9BFEED9AFDEC99FC0FD5F0D64B
:100EEE00E4CEFBE4CDFAE4CCF9A88222B800C1B975
:100EFE000059BA002DEC8BF084CFCECDFCE5F0CBB3
:100F0E00F97818EF2FFFEE33FEED33FDEC33FCEBEB
:100F1E0033FB10D703994004EB99FB0FD8E5E4F9A6
:100F2E00FA227818EF2FFFEE33FEED33FDEC33FC93
:100F3E00C933C910D7059BE99A4007EC9BFCE99A87
:100F4E00F90FD8E0E4C9FAE4CCFB2275F010EF2FCC
:100F5E00FFEE33FEED33FDCC33CCC833C810D707CC
:100F6E009BEC9AE899400AED9BFDEC9AFCE899F807
:0E0F7E000FD5F0DAE4CDFBE4CCFAE4C8F9229A
:00000001FF
